:10108E0036393B3F44494E545A6067717B878D41D8
:10109E0020000041180000411000004108000041EE
:1010AE0000000040F0000040E0000040D000004092
:1010BE00C0000040B0000040A00000409000004082
:0B10CE00800000406000004040000077
:1011FF008F2A8C2B8D2C8A2D8B2E7F02121696E523
:10120F00AF70031215F4AB2EAA2DAD2CAC2BAF2A59
:03121F00020DA31A
:0F1696007D3B7C21ED1D70011C144C70F7DFF1C2
:0116A5002222
:1015F400538EF7759A50438E04759CEE438E107586
:05160400AF01D2AF228E
:0616A600292EFF6307FF7F
:0A16AC008F9BE50D60FCE4F50D22B4
:1012C50053877F759850438E40538EFE53890F4345
:0D12D5008920758BEE758DEEC2ABD28E2296
:080003008F993099FDC299228A
:061755003098FDC298224D
:100C89007F2C7E011211281216BD7B647A007D1E0D
:040C99007C007F015B
:020C9D008F25A1
:100C9F00E4F526F527F582F583F528F529D3EB94AE
:100CAF00FFEA940340087526037527FF80048A2600
:100CBF008B27D3ED94FFEC9403400280048C838D3B
:100CCF00828A288B29AE04A9057FFF120003120028
:100CDF0003AF251200037F071200037F03120003E7
:100CEF007F1E120003AF01120003AF06120003AF05
:100CFF0029120003AF28120003E5252428252925F2
:0F0D0F0028292EFF6307FF1200037F02021696AA
:020DA3008F2F90
:100DA500E4F530F531F582F583F532F533D3EB947F
:100DB500FFEA940340087530037531FF80048A30DB
:100DC5008B31D3ED94FFEC9403400280048C838D2A
:100DD500828A328B33AE04A9057FFF1216AC121638
:100DE500ACAF2F1216AC7F071216AC7F031216ACF0
:100DF5007F1E1216ACAF011216ACAF061216ACAFC1
:100E0500331216ACAF321216ACE52F242825332544
:090E1500321216A67F02021696A5
:020E97008F1EAC
:100E9900E4F51FC3EC64809480500CC3E49DFBE42B
:100EA9009CFA751F018007AA04AB05E4F51FD3ED71
:100EB90094FFEC6480948340047A037BFFE51F254B
:100EC900E025E0FEEE42027E00A9037FFF1216AC88
:100ED9001216ACAF1E1216AC7F051216AC7F0312A8
:100EE90016AC7F201216ACAF011216AC7F00121699
:0D0EF900ACE51E242A1216A67F02021696F2
:030043000212FEA8
:1012FE00C0E0E59A30E006539AFE750C01E59A308F
:0B130E00E106539AFD750D01D0E0329E
:10134E008F34AC34E41201E8121718AF341212E2E3
:09135E00AC07E41201E8021718C3
:1012E200EF4488F5BC00000000E5BC30E4FB53BCD1
:0C12F200EFAFBD7E0012078112021C222B
:0F16C60075985A758920758DFD758BFDD28E2212
:0F16D500759D01E4F5BD75BC807F02FE021319FF
:0B1718003099FDC29912021C8F99222B
:10131900EF1FAA0670011E4A60107C137D88ED1D1F
:0A132900AA0470011C4A60E880F479
:011333002297
:040781008E148F152E
:1007850075180075190E751A00751B07E4F51CF52B
:100795001DC3E51D9519E51C9518400302088AC37C
:1007A500E51D951BE51C951A400302088A748E25E4
:1007B5001BF5827410351AF583E4937E008E16F5C9
:1007C50017B51513EEB5140FE51BAE1A7802C33332
:1007D500CE33CED8F98046748E251DF5827410353A
:1007E5001CF583E493B51513E4B5140FE51DAE1C94
:1007F5007802C333CE33CED8F98022748E2519F50D
:100805008274103518F583E493B51520E4B5141CEE
:10081500E519AE187802C333CE33CED8F9249DF549
:100825008274103EF5831202AB0208D8C3E5159514
:1008350017E51495165020851A18851B19E51B25F3
:100845001DFFE51A351CC313F51AEF13F51B851C9F
:100855001C851D1D020796D3E5159517E5149516FC
:100865005003020796851A1C851B1DE519251BFFDC
:10087500E518351AC313F51AEF13F51B85181885F6
:100885001919020796E519AE187802C333CE33CE8F
:10089500D8F9249DF58274103EF5831202ABC0048D
:1008A500C005C006C007E51DAE1C7802C333CE33B4
:1008B500CED8F9249DF58274103EF5831202BBD083
:1008C50007D006D005D00412004DE4FBFAF97840B4
:0C08D50012014112021CAC07E41201E801
:0108E10022F4
:0E111A007F467E001211281216BD7FE87E036C
:10112800D3EF9400EE940040217D0A7C007B557A31
:1011380000EB1B70011AEB4A70F7ED1D70011CEDF6
:0A1148004C70EAEF1F70D91E80D62C
:01115200227A
:0716B6007E007F781211286D
:0916BD00C282C283C284C28522EC
:10133400D280D281750E00750FC8758902D2AFD2E2
:0A134400A9758C91758A91D28C2254
:08160900751001751168D20093
:0D161100300005D282C28322C282D2832221
:0B139900751200751301EF24FF920095
:0D13A400300005D284C28522C284D2852289
:1013B1007510007511017512027513BC12139FEFA0
:0713C10024FF920002161147
:1013C80075100075110175120075135A12139FEFED
:0713D80024FF920002161130
:10145200751000751101751202751358C20012132E
:06146200A4C200021611F5
:101630007510027511BC121399EF24FF9200021667
:011640001198
:1016410075100075115B121399EF24FF92000216B9
:011651001187
:10146800751002751158751200751301C200121318
:06147800A4C200021611DF
:1016520075100175112C121399EF24FF92000216D6
:011662001176
:10166300751000751150121399EF24FF92000216A2
:011673001165
:10147E007510007511017512007513FAC200121362
:06148E00A4C200021611C9
:101674007510007511C8121399EF24FF9200021619
:011684001154
:10168500751000751146121399EF24FF920002168A
:011695001143
:10149400751000751101751200751396C2001213B0
:0614A400A4C200021611B3
:1013DF007510007511017512007513E112139FEF4F
:0713EF0024FF920002161119
:1013F60075100075110175120075134B12139FEFCE
:0714060024FF920002161101
:1014AA00751000751196751200751301C20012139A
:0614BA00A4C2000216119D
:10140D0075100075110175120175134512139FEFBB
:07141D0024FF9200021611EA
:1014240075100075110175120075135012139FEF9A
:0714340024FF9200021611D3
:1014C0007510007511FA751200751301C200121320
:0614D000A4C20002161187
:1014D6007510007511C8751200751301D20012132C
:0614E600A4D20002161161
:1014EC007510007511017512007513C8D200121316
:0614FC00A4D2000216114B
:1015020075100075110175120075138CC20012134B
:06151200A4C20002161144
:101518007510007511B4751200751301C20012130D
:06152800A4C2000216112E
:10152E007510017511907512007513C8C200121353
:06153E00A4D20002161108
:101544007510017511907512007513C8C20012133D
:06155400A4D200021611F2
:10155A0075100075111E75120075133CC200121326
:06156A00A4D200021611DC
:101570007512017513907510007511C8D200121301
:06158000A4C200021611D6
:1015860075120075131E75100075113CD2001213EA
:06159600A4C200021611C0
:0E16E400751201751390121609D2000213A49C
:10159C00751200751364751000751155D200121672
:0615AC0011D2000213A49D
:1015B2007512007513CD7510007511B4C2001216A4
:0615C20011C2000213A497
:1015C800751200751346751001751190C200121638
:0615D80011C2000213A481
:0E16F2007512017513C2121609D2000213A45C
:1015DE007512007513DC7510007511B4C200121669
:0615EE0011C2000213A46B
:100F06001216E430B50320901C20B50B7F01121396
:100F1600B13091032092F220900B7F0112163030EF
:100F260091032092F230860320871C20860B7F01D6
:100F36001216523091032092F220870B7F0112166F
:100F4600743091032092F230930320941C20940B6A
:100F56007F0112140D3091032092F220930B7F0132
:0A0F66001213DF3091032092F222F3
:100F70001215B230B50320901C20B50BE4FF1213FC
:100F8000B13091032092F220900BE4FF1216303022
:100F900091032092F230860320871C20860BE4FF09
:100FA0001216523091032092F220870BE4FF1216A2
:100FB000743091032092F230930320941C20940B00
:100FC000E4FF12140D3091032092F220930BE4FF02
:0A0FD0001213DF3091032092F22289
:100BEF0012159C30B50320902C20B51330B2103065
:100BFF00A00D30910A3092077F011213C880EA20AE
:100C0F00901330B21030A00D30910A3092077F014F
:100C1F0012164180EA30860320872C20861330B2CB
:100C2F001030A00D30910A3092077F0112166380A9
:100C3F00EA20871330B21030A00D30910A3092079E
:100C4F007F0112168580EA30930320942C20941391
:100C5F0030B21030A00D30910A3092077F0112147C
:100C6F002480EA20931330B21030A00D30910A3057
:0A0C7F0092077F011213F680EA22AB
:100FDA001215B230A70320B21820A70912145230F2
:100FEA00970320A4F420B20912146830970320A4AE
:100FFA00F430950320961820950912147E30970331
:10100A0020A4F420960912149430970320A4F430F3
:10101A00A50320A61820A6091214C030970320A4FD
:0E102A00F420A5091214AA30970320A4F42282
:10000E001216E420B30330B42B30B3121214D630D0
:10001E00B30C2087F42091F12092EE2093EB30B4B4
:10002E00131214EC30B40D2087F42091F12092EECF
:05003E002093EB2222DB
:0711AB007FD07E071211281E
:1011B2001215C820B30330B41930B3091215023026
:1011C200B3032090F430B40A12151830B4042090FE
:0311D200F42222E2
:0711D5007FD07E07121128F4
:1011DC001215DE20B30330B41930B30912150230E6
:1011EC00B30320B5F430B40A12151830B40420B58A
:0311FC00F42222B8
:1008E2001216BD7FF47E0112112830B50630940332
:1008F20020934130A70630950320963820B5033067
:10090200A73220940330952C209303309626209012
:100912000330B22020A60330861A20A503308714A4
:1009220020910330A40E20920330970830A00512C4
:10093200155A80C830B50630940320934130B20670
:1009420030A60320A53820B50330A7322094033007
:10095200952C20930330962620900330B22020A6B7
:100962000330861A20A50330871420910330A40E89
:1009720020920330970830A00512158680C8309067
:100982000630860320874130A7063095032096382B
:1009920020B50330A73220940330952C20930330E6
:1009A200962620900330B22020A60330861A20A576
:1009B2000330871420910330A40E2092033097084D
:1009C20030A00512158680C8309006308603208735
:1009D2004130B20630A60320A53820B50330A73235
:1009E20020940330952C20930330962620900330D8
:1009F200B22020A60330861A20A503308714209146
:100A02000330A40E20920330970830A00512155A25
:0C0A120080C81216BD7FF47E010211287E
:100E1E001211211215707E051216B87FF47E011282
:100E2E00112830B50320901C20B50B7F011213B191
:100E3E003091032092F220900B7F011216303091E8
:100E4E00032092F230930320941C20930B7F011207
:100E5E0013DF3091032092F220940B7F0112140DB8
:100E6E003091032092F230860320871C20860B7F60
:100E7E00011216523091032092F220870B7F01123D
:090E8E0016743091032092F22247
:071222007F647E0012112819
:1012290012112112157012112430B60630970320BD
:0C123900A4F71216BD7FE87E0302112806
:10143B001211211215707F787E051211281216BD1C
:07144B007FF47E010211286D
:100D1E001216BD7F787E0512112812152E7F787E51
:100D2E00051211281216BD7FF47E0112112830B55E
:100D3E000320901C20B50B7F011213B130910320BC
:100D4E0092F220900B7F011216303091032092F216
:100D5E0030930320941C20930B7F011213DF3091EC
:100D6E00032092F220940B7F0112140D3091032078
:100D7E0092F230860320871C20860B7F01121652BA
:100D8E003091032092F220870B7F0112167430915E
:050D9E00032092F22287
:1012870012112112152E7F207E0312112830B60667
:1012970030970320A4F71216BD7FE87E03021128BA
:1012A7001216BD7FB07E0412112812152E7F787E8C
:0E12B700051211281216BD7FF47E01021128C7
:0A1723001215707FDC7E050211280C
:0A172D0012152E7FDC7E0502112844
:1013670012112112172320B6FD3091032092F71294
:0913770016BD7FE87E0302112877
:1013800012112112172320B6FD3091032092F7127B
:0913900016BD7FE87E030211285E
:0A173700120F067F5E7E01021128EA
:0A174100120BEF7F0A7E0002112850
:0A174B00120FDA7F2C7E0102112834
:10115300751200751323E4250BFFE50A34FEFE1216
:10116300170CEF25E0FFEE33FEEF2432F511E43EDA
:0C117300F510D200121611D2000213A4D5
:10117F00E4250BFFE50A34FEFE12170CEF25E0FF06
:10118F00EE33FEEF2432F513E43EF51275100075C1
:0C119F00110FD200121611D2000213A48E
:10061500750A02750B00752102752200E4F523F5B4
:100625002412112420A0197F027E0012112820A077
:100635000F7B647A00AD0BAC0A7F03120C9D8056CC
:100645007B647A00AD22AC217F03120C9D7F327E44
:100655000012112820B7287F027E0012112820B72A
:100665001E7B647A00AD22AC217F03120C9D121112
:100675002485210A85220B752300752401801774B2
:10068500F62522F52274FF3521F521C3E522949044
:10069500E5219401508EE5244523706B20A0197F38
:1006A500027E0012112820A00F7B647A00AD0BACEE
:1006B5000A7F03120C9D804F7B647A00AD22AC212A
:1006C5007F03120C9D7F327E0012112820B7227FF6
:1006D500027E0012112820B7187B647A00AD22AC87
:1006E500217F03120C9D12112485210A85220B807E
:1006F50016740A2522F522E43521F521D3E5229445
:1007050058E52194024095D3E50B9400E50A94023F
:10071500502B20A00C7F027E0012112820A0028001
:10072500291211531216B67FC87E0012112830B750
:10073500E17F037E0012112830B7D7803420A0173F
:100745007F027E0012112820A00D7B647A00AD0B7C
:10075500AC0A7F03020C9D12117F1216B67FC87E6C
:100765000012112830B7D67F037E0012112830B74A
:0B077500CC1216BD7F327E001211284E
:010780002256
:06161E001211281216BD96
:0C162400C2A37FD07E07121128D2A3229F
:101245001211211215707F207E03121128121570BC
:1012550020A4FA7F037E0012112820A4F012112188
:011265002266
:1012660012112112152E7F207E0312112812152E1F
:101276002097FA7F037E001211282097F012112181
:011286002245
:100A1E00120F062087FA2091F72092F42093F112FC
:100A2E0016E47F207E03121128120F062087FA206B
:100A3E0091F72092F42093F112128712174B120F96
:100A4E00DA2087FA2091F72092F42093F11215B252
:100A5E0012122212173712000E2087FA2091F72059
:100A6E0092F42093F11216E47FC87E0012161E7FB8
:100A7E00887E131211281211B27FC47E091211281A
:100A8E001211B22090FA12124512174B120FDA20E1
:100A9E0087FA2091F72092F42093F1120FDA7FF467
:100AAE007E01121128120FDA2087FA2091F7209278
:100ABE00F42093F112126612173712000E2087FAE5
:100ACE002091F72092F42093F11216E47F2C7E01F0
:100ADE0012161E7F887E131211281211DC7FC47E1F
:100AEE00091211281211DC20B5FA12126612174BD8
:100AFE00120FDA2087FA2091F72092F42093F11248
:100B0E0015B27F647E0012112812124512174B1275
:100B1E000FDA2096FA2097F720A4F420A5F1120FF1
:090B2E00707FB07E041211282230
:100B37001216BD7BF47A017DC8120C99E4FDFC7F87
:100B470002120C9D7D007C027F03120C9D7FD07EDC
:100B570007121128120F062087FA2091F72092F426
:100B67002093F11216E47F587E02121128120F0605
:100B77002087FA2091F72092F42093F1121229127C
:100B87000FDA121124120FDA2087FA2091F7209238
:100B9700F42093F11215B27F647E00121128121609
:100BA700BD7FF47E011211287BF47A01120C971293
:100BB7001229120BEF20B2FA7F037E0012112820B0
:100BC700B2F01216E412111A12061520A0FA7F02CB
:100BD7007E0012112820A0F01211217BF47A017DEA
:080BE700C8120C99121124221E
:1002CB00120FDA2090FA1212297BF47A017D007C4E
:1002DB00027F03120C9D12174B120FDA2087FA20A4
:1002EB0091F72092F42093F1120FDA121124120FCE
:1002FB00DA2087FA2091F72092F42093F11215B2AD
:10030B001212227BF47A017DE87C037F02120C9D92
:10031B001216E47FFA7E0012112812000E2087FAC3
:10032B002091F72092F42093F11216E4120C89120B
:10033B0011AB7FC47E091211281211B22090FA7BE7
:10034B00F47A01E4FDFC7F02120C9D1212291217A4
:10035B004B120FDA7F2C7E01121128120FDA208735
:10036B00FA2091F72092F42093F1120FDA12112454
:10037B00120FDA2087FA2091F72092F42093F112D2
:10038B0015B2121222120BEF20B2FA7F037E00126B
:10039B00112820B2F01216E412111A12061520A021
:1003AB00FA7F037E0012112820A0F0121121120BEC
:1003BB00EF7F527E0312111E7BF47A017DC8120C63
:1003CB0099121124120FDA7F4C7E0412112812138A
:1003DB00671216BD7FF47E011211287BF47A017D22
:1003EB00007C027F03120C9D7DE87C037F02120CC4
:1003FB009D121124120F067FD07E071211281200B6
:10040B000E2087FA2091F72092F42093F11216E434
:10041B007F5E120C8B1211D57FC47E09121128122C
:10042B0011DC20B5FA7BF47A01E4FDFC7F02120C9F
:10043B009D12128712174B120FDA2087FA2091F7B1
:10044B002092F42093F11215B212122212174B12B2
:10045B000FDA2087FA2091F72092F42093F1120FF4
:08046B00DA1211241216BD2261
:100473001211B21211241213671216BD7BF47A0102
:100483007DE87C037F02120C9D7D007C027F0312BA
:100493000C9D12112412000E2087FA2091F720924E
:1004A300F42093F11216E4120C891211D5121124BF
:1004B3001211DC20B5FA1215B27F907E01121128B9
:1004C3001216BD7FF47E011211287BF47A01E4FD3C
:1004D300FC7F02120C9D12138012159C20B2FA7F2E
:1004E300037E0012112820B2F01216E47F467E002C
:1004F3001211281216BD7FF47E011211281208E290
:1005030012061520A0FA7F037E0012112820A0F006
:1005130012112112159C7F407E061211281216BD5E
:100523007FF47E011211287BF47A017DC8120C99A5
:100533007FD07E071211281211B22090FA1216BD35
:100543007BF47A017D007C027F03120C9D7FF47E95
:100553000112112812122912174B120FDA2087FAEF
:100563002091F72092F42093F1120FDA1211241242
:100573000FDA2087FA2091F72092F42093F11216D4
:10058300BD7BF47A017D847C037F02120C9D7FF492
:100593007E0112112812122912173712000E20871A
:1005A300FA2091F72092F42093F11216E47FFA7E59
:1005B30000120C8D1211AB7FC47E09121128121187
:1005C300B22090FA1216BD7BF47A01E4FDFC7F029F
:1005D300120C9D7FF47E0112112812122912174B5F
:1005E300120FDA2087FA2091F72092F42093F11268
:1005F300128712174B120FDA2087FA2091F72092F5
:10060300F42093F11215B27FB07E04121128121652
:02061300BD2206
:101038001213341212C51211247BF47A017DC812DE
:101048000C997DE87C037F02120C9D7D007C027F59
:1010580003120C9D20A1187F057E0012112820A1E3
:101068000E120A1E120B371202CB1216BD80FB207D
:10107800A2137F057E0012112820A209120A1E124F
:061088000B371204732275
:03000B000210D907
:1010D900C0E0C0D0C28CE509B51107E508B510021A
:1010E900C280E509B51307E508B51202C281E50911
:1010F900B50F0FE508B50E0A750800750900D2800D
:10110900D2810509E50970020508D28CD0D0D0E05A
:0111190032A3
:10004600020288E86480F8E933E83360110460F05E
:10005600ED33EC337009E8FCE9FDEAFEEBFF220420
:1000660060DED3EB9FEA9EE99DE8C2E78CF0C2F71B
:1000760095F0400CE8CCF8E9CDF9EACEFAEBCFFBE7
:1000860012025385D0F05804700320D5B3E80470EB
:10009600075002B2D502029292D5EC0460F7E4CC86
:1000A600C0E0C398F8603B94186008400DD0E0FBB0
:1000B60002026AE4FBFAC9FC8028E830E406E4C9D7
:1000C600FBE4CAFCE830E305E4C9CACBFCE8540704
:1000D6006010F8C3E913F9EA13FAEB13FBEC13FC0F
:1000E600D8F130F52FC3E49CFCEF9BFFEE9AFEEDB2
:1000F60099FDD0E0FBEF4E4D4C701222DB0302025D
:100106008FEC2CFCEF33FFEE33FEED33FDED30E7E5
:10011600EB02026AEF2BFFEE3AFEED39FDD0E0FB73
:1001260050130BBB0003020292ED13FDEE13FEEF1C
:0801360013FFEC13FC02026A46
:10013E00020292EC5D046005E85904700302028825
:10014E00120253580460F6EC4860F2EC7004FDFEA7
:10015E00FF22C860DB2481C85009C3986002500694
:10016E0002028F9850CAF582E9294B4A7005AB827C
:10017E0002027E75F0007C1A7880C3EF9BEE9AED3A
:10018E0099400DC3EF9BFFEE9AFEED99FDE842F00C
:10019E00DC23ACF0D0E0FFD0E0FED0E0FDAB82205F
:1001AE00E7101BEB60BAEC2CFCEF33FFEE33FEEDE9
:1001BE0033FD02026AE803F830E705C0F075F0007F
:1001CE00EF2FFFEE33FEED33FD40B830E7C280AACD
:1001DE0075F020800E75F010800575F0087D007E9C
:1001EE00007F003392D530D50312029DEC334010C0
:1001FE00EF33FFEE33FEED33FDEC33FCD5F0ED22A5
:0E020E00E5F0247EA2D513CC92E7CDCEFF22E0
:10021C00EDD2E7CD33EC3392D524814006E4FFFEDA
:10022C00FDFC22FCE4CFCECDCC24E0501174FF8039
:10023C00EDC3CC13CCCD13CDCE13CECF13CF0470D6
:07024C00F030D5DE02029D37
:10025300E9D2E7C933E833F892D5EDD2E7CD33ECF1
:0702630033FC5002B2D5226A
:10026A00EC30E7100FBF000C0EBE00080DBD0004F5
:10027A000BEB6014A2D5EB13FCED92E7FD2274FFA1
:10028A00FCFDFEFF22E480F8A2D574FF13FC7D80FA
:03029A00E480EF0E
:03000000021700E4
:0C170000787FE4F6D8FD758134021038C3
:0E029D00C3E49FFFE49EFEE49DFDE49CFC2272
:1002AB00E493FC740193FD740293FE740393FF2299
:1002BB00E493F8740193F9740293FA740393FB2299
:0C170C00EE30E707C3E49FFFE49EFE22DE
:00000001FF
